{
    "contractName": "Hello_World",
    "abi": [
        {
            "inputs": [],
            "name": "get_message",
            "outputs": [
                {
                    "internalType": "string",
                    "name": "",
                    "type": "string"
                }
            ],
            "stateMutability": "view",
            "type": "function"
        }
    ],
    "bytecode": "60c0604052600b60808190526a12195b1b1bc815dbdc9b1960aa1b60a090815261002c916000919061003f565b5034801561003957600080fd5b50610112565b82805461004b906100d8565b90600052602060002090601f01602090048101928261006d57600085556100b3565b82601f1061008657805160ff19168380011785556100b3565b828001600101855582156100b3579182015b828111156100b3578251825591602001919060010190610098565b506100bf9291506100c3565b5090565b5b808211156100bf57600081556001016100c4565b600181811c908216806100ec57607f821691505b60208210810361010c57634e487b7160e01b600052602260045260246000fd5b50919050565b6101a5806101216000396000f3fe608060405234801561001057600080fd5b506004361061002b5760003560e01c806332af2edb14610030575b600080fd5b61003861004e565b60405161004591906100e0565b60405180910390f35b60606000805461005d90610135565b80601f016020809104026020016040519081016040528092919081815260200182805461008990610135565b80156100d65780601f106100ab576101008083540402835291602001916100d6565b820191906000526020600020905b8154815290600101906020018083116100b957829003601f168201915b5050505050905090565b600060208083528351808285015260005b8181101561010d578581018301518582016040015282016100f1565b8181111561011f576000604083870101525b50601f01601f1916929092016040019392505050565b600181811c9082168061014957607f821691505b60208210810361016957634e487b7160e01b600052602260045260246000fd5b5091905056fea2646970667358221220e645f739b70c513b20f425276aa7bda60073983f13cefc2502f9a20c18c7babc64736f6c634300080d0033",
    "sourcePath": "e:/Git repository/Solidity/HelloWorld_truffle/contracts/HelloWorld.sol",
    "compiler": {
        "name": "solc",
        "version": "0.8.13+commit.abaa5c0e"
    },
    "functionHashes": {
        "get_message()": "32af2edb"
    },
    "gasEstimates": {
        "creation": {
            "codeDepositCost": "84200",
            "executionCost": "infinite",
            "totalCost": "infinite"
        },
        "external": {
            "get_message()": "infinite"
        }
    }
}