{
    "contractName": "addition",
    "abi": [
        {
            "inputs": [],
            "name": "add",
            "outputs": [
                {
                    "internalType": "uint256",
                    "name": "",
                    "type": "uint256"
                },
                {
                    "internalType": "uint256",
                    "name": "",
                    "type": "uint256"
                }
            ],
            "stateMutability": "view",
            "type": "function"
        }
    ],
    "bytecode": "608060405260016000819055600280825561001991610057565b60025560015460005461002c9190610155565b60035534801561003b57600080fd5b50610168565b634e487b7160e01b600052601160045260246000fd5b6000821982111561006a5761006a610041565b500190565b600181815b808511156100aa57816000190482111561009057610090610041565b8085161561009d57918102915b93841c9390800290610074565b509250929050565b6000826100c15750600161014f565b816100ce5750600061014f565b81600181146100e457600281146100ee5761010a565b600191505061014f565b60ff8411156100ff576100ff610041565b50506001821b61014f565b5060208310610133831016604e8410600b841016171561012d575081810a61014f565b610137838361006f565b806000190482111561014b5761014b610041565b0290505b92915050565b600061016183836100b2565b9392505050565b6082806101766000396000f3fe6080604052348015600f57600080fd5b506004361060285760003560e01c80634f2be91f14602d575b600080fd5b6002546003546040805192835260208301919091520160405180910390f3fea2646970667358221220ac69a87c678f2f7c449ab08bd36acdc047d05b047c8e9fd877edc8cbb8f977bc64736f6c634300080d0033",
    "sourcePath": "e:/Git repository/Solidity/HelloWorld_truffle/math_operation/maths_basic.sol",
    "compiler": {
        "name": "solc",
        "version": "0.8.13+commit.abaa5c0e"
    },
    "functionHashes": {
        "add()": "4f2be91f"
    },
    "gasEstimates": {
        "creation": {
            "codeDepositCost": "26000",
            "executionCost": "92963",
            "totalCost": "118963"
        },
        "external": {
            "add()": "4373"
        }
    }
}