{
    "contractName": "subtraction",
    "abi": [
        {
            "inputs": [],
            "name": "sub",
            "outputs": [
                {
                    "internalType": "uint256",
                    "name": "",
                    "type": "uint256"
                }
            ],
            "stateMutability": "view",
            "type": "function"
        }
    ],
    "bytecode": "60806040526001600081905560028082556100199161002e565b60025534801561002857600080fd5b50610053565b60008282101561004e57634e487b7160e01b600052601160045260246000fd5b500390565b6078806100616000396000f3fe6080604052348015600f57600080fd5b506004361060285760003560e01c8063c54124be14602d575b600080fd5b60025460405190815260200160405180910390f3fea26469706673582212203804d75435e477fe483aa4cbb8a5bb05439a0beacfd2fa8f7344fda56364c9e364736f6c634300080d0033",
    "sourcePath": "e:/Git repository/Solidity/HelloWorld_truffle/math_operation/subtraction.sol",
    "compiler": {
        "name": "solc",
        "version": "0.8.13+commit.abaa5c0e"
    },
    "functionHashes": {
        "sub()": "c54124be"
    },
    "gasEstimates": {
        "creation": {
            "codeDepositCost": "24000",
            "executionCost": "44315",
            "totalCost": "68315"
        },
        "external": {
            "sub()": "2246"
        }
    }
}